:020000040801F1
:100800006020002099090108A1090108A309010835
:10081000A5090108A7090108A909010800000000AD
:10082000000000000000000000000000AB0901080B
:10083000AD09010800000000AF090108B109010875
:10084000B3090108B3090108B3090108B309010894
:10085000B3090108B3090108B3090108B309010884
:10086000B3090108B3090108B3090108B309010874
:10087000B3090108B3090108B3090108B309010864
:10088000B3090108B3090108B3090108B309010854
:10089000B3090108B3090108B3090108B309010844
:1008A000B3090108B3090108B3090108B309010834
:1008B000B3090108B3090108B3090108B309010824
:1008C000B3090108B3090108B3090108B309010814
:1008D000B3090108B3090108B3090108B309010804
:1008E000B3090108B3090108B309010800F002F8CF
:1008F00000F042F814A696E8000CB244B344DA457E
:1009000001D100F039F8BAE80F000FA696E83000E0
:10091000A5EB040504EB0607AAEB0704A7F1010702
:100920004FEA15154FEA3414A4F10104AC4201D387
:1009300000F022F813F0010F18BFFB1A43F0010377
:1009400000F001F8DBE71847A4030000B40300003F
:10095000704700000023002400250026103A28BF1D
:1009600078C1FBD8520728BF30C148BF0B60704721
:100970001FB51FBD10B510BD00F025F81146FFF7DB
:10098000F7FF00F025F900F043F803B4FFF7F2FF9A
:1009900003BC00F04BF800000748804707480047B9
:1009A000FEE7FEE7FEE7FEE7FEE7FEE7FEE7FEE71F
:1009B000FEE7FEE770470000690B0108ED0801083B
:1009C000704770477047754600F02CF8AE4605003A
:1009D0006946534620F00700854618B020B5FFF75A
:1009E000E9FFBDE820404FF000064FF000074FF050
:1009F00000084FF0000BAC46ACE8C009ACE8C009F9
:100A0000ACE8C009ACE8C00921F007018D46704789
:100A100010B50446AFF300802046BDE81040FFF754
:100A2000B4BF000000487047002000200149182092
:100A3000ABBEFEE7260002007047000080B500F064
:100A400001F880BD84B000200390029041F20001C3
:100A5000C4F20201086840F480300860FFE741F208
:100A60000000C4F20200006800F400300290039815
:100A700001300390FFE702990020019039B9FFE7A8
:100A80000398B0F5A06018BF01200190FFE701981E
:100A9000C0070028E3D1FFE741F20000C4F20200E2
:100AA00000688003002803D5FFE70120029002E0E0
:100AB00000200290FFE70298012851D1FFE742F29F
:100AC0000001C4F20201086840F0100008600868E4
:100AD00020F007000860086840F00200086041F25A
:100AE0000401C4F202010091086808600868086007
:100AF000086840F480600860086820F47C10086092
:100B0000086840F4E810086041F20001C4F20201F4
:100B1000086840F080700860FFE741F20000C4F20E
:100B2000020000688001002801D4FFE7F5E741F2E8
:100B30000401C4F20201086820F00300086008689C
:100B400040F002000860FFE741F20400C4F2020036
:100B5000006800F00C00082801D0FFE7F4E700E08F
:100B6000FFE704B07047000080B541F20002C4F214
:100B70000202106840F00100106041F20401C4F26A
:100B8000020108680023CFF6FF03184008601068D0
:100B90004FF6FF73CFF6F66318401060106820F42C
:100BA00080201060086820F4FE00086041F208010F
:100BB000C4F202014FF41F000860FFF73FFF4EF63A
:100BC0000851CEF200014FF00060086080BD0000C7
:100BD00080B582B00020019000F008F8FFE740F6F1
:100BE000CE40C0F6010000F061F8F8E741F21801CC
:100BF000C4F20201086840F004000860086840F48C
:100C00008040086040F60401C4F20101086820F049
:100C1000C0000860086840F080000860086840F084
:100C200030000860086820F440700860086820F40C
:100C300040600860086840F48060086043F608017E
:100C4000C4F2010141F64C50088043F60C01C4F295
:100C50000101088840F008000880088840F004007E
:100C60000880088840F400500880704781B08DF8F3
:100C700003009DF8030043F60401C4F2010108805B
:100C8000FFE743F60000C4F20100008800060028D8
:100C900001D4FFE7F5E743F60001C4F2010108883B
:100CA00020F04000088001B07047000080B582B09D
:100CB0000190FFE70198007838B1FFE70198411CE7
:100CC00001910078FFF7D2FFF4E702B080BD4D6FCD
:100CD000746F722069732052756E696E67202E2EB4
:100CE0002E2E2E2E20212121200D0A00FC0C010881
:0C0CF000002000206000000054090108F2
:04000005080108EDF9
:00000001FF
